{
  "_format": "hh-sol-artifact-1",
  "contractName": "EventRegistry",
  "sourceName": "contracts/EventRegistry.sol",
  "abi": [
    {
      "inputs": [],
      "stateMutability": "nonpayable",
      "type": "constructor"
    },
    {
      "inputs": [
        {
          "internalType": "address",
          "name": "owner",
          "type": "address"
        }
      ],
      "name": "OwnableInvalidOwner",
      "type": "error"
    },
    {
      "inputs": [
        {
          "internalType": "address",
          "name": "account",
          "type": "address"
        }
      ],
      "name": "OwnableUnauthorizedAccount",
      "type": "error"
    },
    {
      "anonymous": false,
      "inputs": [
        {
          "indexed": true,
          "internalType": "uint256",
          "name": "eventId",
          "type": "uint256"
        },
        {
          "indexed": true,
          "internalType": "address",
          "name": "creator",
          "type": "address"
        },
        {
          "indexed": false,
          "internalType": "bytes32",
          "name": "ipfsHash",
          "type": "bytes32"
        },
        {
          "indexed": false,
          "internalType": "uint256",
          "name": "maxSupply",
          "type": "uint256"
        }
      ],
      "name": "EventCreated",
      "type": "event"
    },
    {
      "anonymous": false,
      "inputs": [
        {
          "indexed": true,
          "internalType": "uint256",
          "name": "eventId",
          "type": "uint256"
        },
        {
          "indexed": false,
          "internalType": "bool",
          "name": "isPaused",
          "type": "bool"
        }
      ],
      "name": "EventPaused",
      "type": "event"
    },
    {
      "anonymous": false,
      "inputs": [
        {
          "indexed": true,
          "internalType": "address",
          "name": "minter",
          "type": "address"
        },
        {
          "indexed": false,
          "internalType": "bool",
          "name": "allowed",
          "type": "bool"
        }
      ],
      "name": "MinterUpdated",
      "type": "event"
    },
    {
      "anonymous": false,
      "inputs": [
        {
          "indexed": true,
          "internalType": "address",
          "name": "previousOwner",
          "type": "address"
        },
        {
          "indexed": true,
          "internalType": "address",
          "name": "newOwner",
          "type": "address"
        }
      ],
      "name": "OwnershipTransferred",
      "type": "event"
    },
    {
      "inputs": [
        {
          "internalType": "bytes32",
          "name": "ipfsHash",
          "type": "bytes32"
        },
        {
          "internalType": "uint256",
          "name": "maxSupply",
          "type": "uint256"
        }
      ],
      "name": "createEvent",
      "outputs": [
        {
          "internalType": "uint256",
          "name": "eventId",
          "type": "uint256"
        }
      ],
      "stateMutability": "nonpayable",
      "type": "function"
    },
    {
      "inputs": [],
      "name": "eventCount",
      "outputs": [
        {
          "internalType": "uint256",
          "name": "",
          "type": "uint256"
        }
      ],
      "stateMutability": "view",
      "type": "function"
    },
    {
      "inputs": [
        {
          "internalType": "uint256",
          "name": "eventId",
          "type": "uint256"
        }
      ],
      "name": "events",
      "outputs": [
        {
          "components": [
            {
              "internalType": "bytes32",
              "name": "ipfsHash",
              "type": "bytes32"
            },
            {
              "internalType": "uint256",
              "name": "maxSupply",
              "type": "uint256"
            },
            {
              "internalType": "bool",
              "name": "isPaused",
              "type": "bool"
            },
            {
              "internalType": "address",
              "name": "creator",
              "type": "address"
            }
          ],
          "internalType": "struct IEventRegistry.EventData",
          "name": "",
          "type": "tuple"
        }
      ],
      "stateMutability": "view",
      "type": "function"
    },
    {
      "inputs": [
        {
          "internalType": "address",
          "name": "minter",
          "type": "address"
        }
      ],
      "name": "isMinter",
      "outputs": [
        {
          "internalType": "bool",
          "name": "",
          "type": "bool"
        }
      ],
      "stateMutability": "view",
      "type": "function"
    },
    {
      "inputs": [],
      "name": "owner",
      "outputs": [
        {
          "internalType": "address",
          "name": "",
          "type": "address"
        }
      ],
      "stateMutability": "view",
      "type": "function"
    },
    {
      "inputs": [
        {
          "internalType": "uint256",
          "name": "eventId",
          "type": "uint256"
        }
      ],
      "name": "pauseEvent",
      "outputs": [],
      "stateMutability": "nonpayable",
      "type": "function"
    },
    {
      "inputs": [],
      "name": "renounceOwnership",
      "outputs": [],
      "stateMutability": "nonpayable",
      "type": "function"
    },
    {
      "inputs": [
        {
          "internalType": "address",
          "name": "minter",
          "type": "address"
        },
        {
          "internalType": "bool",
          "name": "allowed",
          "type": "bool"
        }
      ],
      "name": "setMinter",
      "outputs": [],
      "stateMutability": "nonpayable",
      "type": "function"
    },
    {
      "inputs": [
        {
          "internalType": "address",
          "name": "newOwner",
          "type": "address"
        }
      ],
      "name": "transferOwnership",
      "outputs": [],
      "stateMutability": "nonpayable",
      "type": "function"
    },
    {
      "inputs": [
        {
          "internalType": "uint256",
          "name": "eventId",
          "type": "uint256"
        },
        {
          "internalType": "bytes32",
          "name": "newIpfsHash",
          "type": "bytes32"
        }
      ],
      "name": "updateEventMetadata",
      "outputs": [],
      "stateMutability": "nonpayable",
      "type": "function"
    }
  ],
  "bytecode": "0x608060405234801561001057600080fd5b50338061003757604051631e4fbdf760e01b81526000600482015260240160405180910390fd5b61004081610046565b50610096565b600080546001600160a01b038381166001600160a01b0319831681178455604051919092169283917f8be0079c531659141344cd1fd0a4f28419497f9722a3daafe3b4186f6b6457e09190a35050565b610875806100a56000396000f3fe608060405234801561001057600080fd5b506004361061009e5760003560e01c806371be2e4a1161006657806371be2e4a146101c05780638da5cb5b146101c8578063aa271e1a146101e3578063cf456ae71461021f578063f2fde38b1461023257600080fd5b80630b791430146100a35780630b871eba1461016f5780633b05630b1461018457806367b9803f146101a5578063715018a6146101b8575b600080fd5b6101286100b1366004610763565b604080516080810182526000808252602082018190529181018290526060810191909152506000908152600260208181526040928390208351608081018552815481526001820154928101929092529091015460ff81161515928201929092526101009091046001600160a01b0316606082015290565b604051610166919081518152602080830151908201526040808301511515908201526060918201516001600160a01b03169181019190915260800190565b60405180910390f35b61018261017d366004610763565b610245565b005b61019761019236600461077c565b610367565b604051908152602001610166565b6101826101b336600461077c565b6104d7565b6101826105e5565b600154610197565b6000546040516001600160a01b039091168152602001610166565b61020f6101f13660046107ba565b6001600160a01b031660009081526003602052604090205460ff1690565b6040519015158152602001610166565b61018261022d3660046107dc565b6105f9565b6101826102403660046107ba565b6106a8565b6000818152600260205260409020805461029d5760405162461bcd60e51b8152602060048201526014602482015273115d995b9d08191bd95cc81b9bdd08195e1a5cdd60621b60448201526064015b60405180910390fd5b600281015461010090046001600160a01b03163314806102c757506000546001600160a01b031633145b6103135760405162461bcd60e51b815260206004820152601d60248201527f4e6f7420617574686f72697a656420746f207061757365206576656e740000006044820152606401610294565b60028101805460ff8082161560ff19909216821790925560405191161515815282907f21d6037cdc4e25fc2e76e1b925ac61ffd75d681b4e5f0154f717851d252ed1e4906020015b60405180910390a25050565b6000826103aa5760405162461bcd60e51b8152602060048201526011602482015270092dcecc2d8d2c84092a08ca640d0c2e6d607b1b6044820152606401610294565b600082116104045760405162461bcd60e51b815260206004820152602160248201527f4d617820737570706c79206d7573742062652067726561746572207468616e206044820152600360fc1b6064820152608401610294565b6001805490600061041483610818565b9091555050600180546040805160808101825286815260208082018781526000838501818152336060860181815288845260028087529388902096518755935198860198909855519301805491516001600160a81b0319909216931515610100600160a81b031916939093176101006001600160a01b039092169190910217909155815187815290810186905291935083917fd33ab2736e916a8ac5dc669eb3291e137d8f08afb4750cac9733dea8c97d1991910160405180910390a392915050565b6000828152600260205260409020805461052a5760405162461bcd60e51b8152602060048201526014602482015273115d995b9d08191bd95cc81b9bdd08195e1a5cdd60621b6044820152606401610294565b600281015461010090046001600160a01b031633148061055457506000546001600160a01b031633145b6105a05760405162461bcd60e51b815260206004820152601e60248201527f4e6f7420617574686f72697a656420746f20757064617465206576656e7400006044820152606401610294565b816105e15760405162461bcd60e51b8152602060048201526011602482015270092dcecc2d8d2c84092a08ca640d0c2e6d607b1b6044820152606401610294565b5550565b6105ed6106e6565b6105f76000610713565b565b6106016106e6565b6001600160a01b0382166106505760405162461bcd60e51b8152602060048201526016602482015275496e76616c6964206d696e746572206164647265737360501b6044820152606401610294565b6001600160a01b038216600081815260036020908152604091829020805460ff191685151590811790915591519182527fb21afb9ce9be0a676f8f317ff0ca072fb89a4f8ce2d1b6fe80f8755c14f1cb19910161035b565b6106b06106e6565b6001600160a01b0381166106da57604051631e4fbdf760e01b815260006004820152602401610294565b6106e381610713565b50565b6000546001600160a01b031633146105f75760405163118cdaa760e01b8152336004820152602401610294565b600080546001600160a01b038381166001600160a01b0319831681178455604051919092169283917f8be0079c531659141344cd1fd0a4f28419497f9722a3daafe3b4186f6b6457e09190a35050565b60006020828403121561077557600080fd5b5035919050565b6000806040838503121561078f57600080fd5b50508035926020909101359150565b80356001600160a01b03811681146107b557600080fd5b919050565b6000602082840312156107cc57600080fd5b6107d58261079e565b9392505050565b600080604083850312156107ef57600080fd5b6107f88361079e565b91506020830135801515811461080d57600080fd5b809150509250929050565b60006001820161083857634e487b7160e01b600052601160045260246000fd5b506001019056fea2646970667358221220f1eae368241ed4431ab166e1015de9b6b8c58689838939945d2b85753c21486464736f6c63430008140033",
  "linkReferences": {},
  "deployedLinkReferences": {}
}