{
  "_format": "hh-sol-artifact-1",
  "contractName": "SimpleMarketplace",
  "sourceName": "contracts/SimpleMarketplace.sol",
  "abi": [
    {
      "inputs": [
        {
          "internalType": "address",
          "name": "_ticketNFT",
          "type": "address"
        },
        {
          "internalType": "address",
          "name": "_eventRegistry",
          "type": "address"
        },
        {
          "internalType": "uint256",
          "name": "_platformFeeBps",
          "type": "uint256"
        }
      ],
      "stateMutability": "nonpayable",
      "type": "constructor"
    },
    {
      "inputs": [
        {
          "internalType": "address",
          "name": "owner",
          "type": "address"
        }
      ],
      "name": "OwnableInvalidOwner",
      "type": "error"
    },
    {
      "inputs": [
        {
          "internalType": "address",
          "name": "account",
          "type": "address"
        }
      ],
      "name": "OwnableUnauthorizedAccount",
      "type": "error"
    },
    {
      "inputs": [],
      "name": "ReentrancyGuardReentrantCall",
      "type": "error"
    },
    {
      "anonymous": false,
      "inputs": [
        {
          "indexed": true,
          "internalType": "uint256",
          "name": "tokenId",
          "type": "uint256"
        }
      ],
      "name": "ListingCancelled",
      "type": "event"
    },
    {
      "anonymous": false,
      "inputs": [
        {
          "indexed": false,
          "internalType": "uint256",
          "name": "newFeeBps",
          "type": "uint256"
        }
      ],
      "name": "MarketplaceFeeUpdated",
      "type": "event"
    },
    {
      "anonymous": false,
      "inputs": [
        {
          "indexed": true,
          "internalType": "address",
          "name": "previousOwner",
          "type": "address"
        },
        {
          "indexed": true,
          "internalType": "address",
          "name": "newOwner",
          "type": "address"
        }
      ],
      "name": "OwnershipTransferred",
      "type": "event"
    },
    {
      "anonymous": false,
      "inputs": [
        {
          "indexed": true,
          "internalType": "uint256",
          "name": "eventId",
          "type": "uint256"
        },
        {
          "indexed": false,
          "internalType": "uint256",
          "name": "maxMarkupPct",
          "type": "uint256"
        }
      ],
      "name": "ResaleCapSet",
      "type": "event"
    },
    {
      "anonymous": false,
      "inputs": [
        {
          "indexed": true,
          "internalType": "uint256",
          "name": "tokenId",
          "type": "uint256"
        },
        {
          "indexed": true,
          "internalType": "address",
          "name": "seller",
          "type": "address"
        },
        {
          "indexed": false,
          "internalType": "uint256",
          "name": "price",
          "type": "uint256"
        }
      ],
      "name": "TicketListed",
      "type": "event"
    },
    {
      "anonymous": false,
      "inputs": [
        {
          "indexed": true,
          "internalType": "uint256",
          "name": "tokenId",
          "type": "uint256"
        },
        {
          "indexed": true,
          "internalType": "address",
          "name": "seller",
          "type": "address"
        },
        {
          "indexed": true,
          "internalType": "address",
          "name": "buyer",
          "type": "address"
        },
        {
          "indexed": false,
          "internalType": "uint256",
          "name": "price",
          "type": "uint256"
        }
      ],
      "name": "TicketSold",
      "type": "event"
    },
    {
      "inputs": [],
      "name": "MAX_PLATFORM_FEE",
      "outputs": [
        {
          "internalType": "uint256",
          "name": "",
          "type": "uint256"
        }
      ],
      "stateMutability": "view",
      "type": "function"
    },
    {
      "inputs": [],
      "name": "accumulatedFees",
      "outputs": [
        {
          "internalType": "uint256",
          "name": "",
          "type": "uint256"
        }
      ],
      "stateMutability": "view",
      "type": "function"
    },
    {
      "inputs": [
        {
          "internalType": "uint256",
          "name": "tokenId",
          "type": "uint256"
        }
      ],
      "name": "buy",
      "outputs": [],
      "stateMutability": "payable",
      "type": "function"
    },
    {
      "inputs": [
        {
          "internalType": "uint256",
          "name": "tokenId",
          "type": "uint256"
        }
      ],
      "name": "cancelListing",
      "outputs": [],
      "stateMutability": "nonpayable",
      "type": "function"
    },
    {
      "inputs": [],
      "name": "emergencyDelistAll",
      "outputs": [],
      "stateMutability": "nonpayable",
      "type": "function"
    },
    {
      "inputs": [
        {
          "internalType": "uint256",
          "name": "",
          "type": "uint256"
        }
      ],
      "name": "eventFaceValues",
      "outputs": [
        {
          "internalType": "uint256",
          "name": "",
          "type": "uint256"
        }
      ],
      "stateMutability": "view",
      "type": "function"
    },
    {
      "inputs": [],
      "name": "eventRegistry",
      "outputs": [
        {
          "internalType": "contract IEventRegistry",
          "name": "",
          "type": "address"
        }
      ],
      "stateMutability": "view",
      "type": "function"
    },
    {
      "inputs": [],
      "name": "getAccumulatedFees",
      "outputs": [
        {
          "internalType": "uint256",
          "name": "",
          "type": "uint256"
        }
      ],
      "stateMutability": "view",
      "type": "function"
    },
    {
      "inputs": [
        {
          "internalType": "uint256",
          "name": "tokenId",
          "type": "uint256"
        },
        {
          "internalType": "uint256",
          "name": "price",
          "type": "uint256"
        }
      ],
      "name": "listForSale",
      "outputs": [],
      "stateMutability": "nonpayable",
      "type": "function"
    },
    {
      "inputs": [
        {
          "internalType": "uint256",
          "name": "tokenId",
          "type": "uint256"
        }
      ],
      "name": "listings",
      "outputs": [
        {
          "components": [
            {
              "internalType": "address",
              "name": "seller",
              "type": "address"
            },
            {
              "internalType": "uint256",
              "name": "price",
              "type": "uint256"
            },
            {
              "internalType": "bool",
              "name": "isActive",
              "type": "bool"
            }
          ],
          "internalType": "struct ISimpleMarketplace.Listing",
          "name": "",
          "type": "tuple"
        }
      ],
      "stateMutability": "view",
      "type": "function"
    },
    {
      "inputs": [],
      "name": "owner",
      "outputs": [
        {
          "internalType": "address",
          "name": "",
          "type": "address"
        }
      ],
      "stateMutability": "view",
      "type": "function"
    },
    {
      "inputs": [],
      "name": "platformFeeBps",
      "outputs": [
        {
          "internalType": "uint256",
          "name": "",
          "type": "uint256"
        }
      ],
      "stateMutability": "view",
      "type": "function"
    },
    {
      "inputs": [],
      "name": "renounceOwnership",
      "outputs": [],
      "stateMutability": "nonpayable",
      "type": "function"
    },
    {
      "inputs": [
        {
          "internalType": "uint256",
          "name": "",
          "type": "uint256"
        }
      ],
      "name": "resaleCaps",
      "outputs": [
        {
          "internalType": "uint256",
          "name": "",
          "type": "uint256"
        }
      ],
      "stateMutability": "view",
      "type": "function"
    },
    {
      "inputs": [
        {
          "internalType": "uint256",
          "name": "eventId",
          "type": "uint256"
        },
        {
          "internalType": "uint256",
          "name": "maxMarkupPct",
          "type": "uint256"
        }
      ],
      "name": "setResaleCap",
      "outputs": [],
      "stateMutability": "nonpayable",
      "type": "function"
    },
    {
      "inputs": [],
      "name": "ticketNFT",
      "outputs": [
        {
          "internalType": "contract ITicketNFT",
          "name": "",
          "type": "address"
        }
      ],
      "stateMutability": "view",
      "type": "function"
    },
    {
      "inputs": [
        {
          "internalType": "address",
          "name": "newOwner",
          "type": "address"
        }
      ],
      "name": "transferOwnership",
      "outputs": [],
      "stateMutability": "nonpayable",
      "type": "function"
    },
    {
      "inputs": [],
      "name": "withdrawFees",
      "outputs": [],
      "stateMutability": "nonpayable",
      "type": "function"
    }
  ],
  "bytecode": "0x60e06040523480156200001157600080fd5b50604051620015b5380380620015b58339810160408190526200003491620001f9565b33806200005c57604051631e4fbdf760e01b8152600060048201526024015b60405180910390fd5b62000067816200018c565b50600180556001600160a01b038316620000c45760405162461bcd60e51b815260206004820152601a60248201527f496e76616c6964207469636b6574204e46542061646472657373000000000000604482015260640162000053565b6001600160a01b0382166200011c5760405162461bcd60e51b815260206004820152601860248201527f496e76616c696420726567697374727920616464726573730000000000000000604482015260640162000053565b6103e8811115620001705760405162461bcd60e51b815260206004820152601560248201527f506c6174666f726d2066656520746f6f20686967680000000000000000000000604482015260640162000053565b6001600160a01b03928316608052911660a05260c0526200023a565b600080546001600160a01b038381166001600160a01b0319831681178455604051919092169283917f8be0079c531659141344cd1fd0a4f28419497f9722a3daafe3b4186f6b6457e09190a35050565b80516001600160a01b0381168114620001f457600080fd5b919050565b6000806000606084860312156200020f57600080fd5b6200021a84620001dc565b92506200022a60208501620001dc565b9150604084015190509250925092565b60805160a05160c051611313620002a26000396000818161018201526109ae01526000818161027301526104170152600081816102a7015281816108cf01528181610a3801528181610c0c01528181610cd901528181610e350152610ecb01526113136000f3fe6080604052600436106101095760003560e01c80638da5cb5b11610095578063d96a094a11610064578063d96a094a146102de578063de74e57b146102f1578063e80d7fec14610392578063f2fde38b146103b2578063fe66627a146103d257600080fd5b80638da5cb5b1461022f578063acaacad514610261578063b393391b14610295578063c151d423146102c957600080fd5b80633998a681116100dc5780633998a681146101c4578063476343ee146101da578063587f5ed7146101ef5780635df45a3714610205578063715018a61461021a57600080fd5b80630cc3cfc71461010e5780631a77074f1461013057806322dcd13e14610170578063305a67a8146101a4575b600080fd5b34801561011a57600080fd5b5061012e610129366004611107565b6103ff565b005b34801561013c57600080fd5b5061015d61014b366004611129565b60046020526000908152604090205481565b6040519081526020015b60405180910390f35b34801561017c57600080fd5b5061015d7f000000000000000000000000000000000000000000000000000000000000000081565b3480156101b057600080fd5b5061012e6101bf366004611129565b6105f4565b3480156101d057600080fd5b5061015d6103e881565b3480156101e657600080fd5b5061012e6106d2565b3480156101fb57600080fd5b5061015d60055481565b34801561021157600080fd5b5060055461015d565b34801561022657600080fd5b5061012e6107dd565b34801561023b57600080fd5b506000546001600160a01b03165b6040516001600160a01b039091168152602001610167565b34801561026d57600080fd5b506102497f000000000000000000000000000000000000000000000000000000000000000081565b3480156102a157600080fd5b506102497f000000000000000000000000000000000000000000000000000000000000000081565b3480156102d557600080fd5b5061012e6107ef565b61012e6102ec366004611129565b6107f7565b3480156102fd57600080fd5b5061036561030c366004611129565b6040805160608082018352600080835260208084018290529284018190529384526002808352938390208351918201845280546001600160a01b0316825260018101549282019290925292015460ff1615159082015290565b6040805182516001600160a01b031681526020808401519082015291810151151590820152606001610167565b34801561039e57600080fd5b5061012e6103ad366004611107565b610b9c565b3480156103be57600080fd5b5061012e6103cd366004611157565b611025565b3480156103de57600080fd5b5061015d6103ed366004611129565b60036020526000908152604090205481565b60405162b7914360e41b8152600481018390526000907f00000000000000000000000000000000000000000000000000000000000000006001600160a01b031690630b79143090602401608060405180830381865afa158015610466573d6000803e3d6000fd5b505050506040513d601f19601f8201168201806040525081019061048a9190611190565b80519091506104d75760405162461bcd60e51b8152602060048201526014602482015273115d995b9d08191bd95cc81b9bdd08195e1a5cdd60621b60448201526064015b60405180910390fd5b80606001516001600160a01b0316336001600160a01b0316148061050557506000546001600160a01b031633145b6105515760405162461bcd60e51b815260206004820181905260248201527f4e6f7420617574686f72697a656420746f2073657420726573616c652063617060448201526064016104ce565b60648211156105a25760405162461bcd60e51b815260206004820152601960248201527f4d61726b75702063616e6e6f742065786365656420313030250000000000000060448201526064016104ce565b600083815260036020526040908190208390555183907f7f2c2ae8ae38451e0d33bc7466349b45d074cbff8ff16cfd0c27b76b6e08944d906105e79085815260200190565b60405180910390a2505050565b60008181526002602081905260409091209081015460ff1661064d5760405162461bcd60e51b81526020600482015260126024820152714c697374696e67206e6f742061637469766560701b60448201526064016104ce565b80546001600160a01b031633146106975760405162461bcd60e51b815260206004820152600e60248201526d2737ba103a34329039b2b63632b960911b60448201526064016104ce565b60028101805460ff1916905560405182907f411aee90354c51b1b04cd563fcab2617142a9d50da19232d888547c8a1b7fd8a90600090a25050565b6106da611060565b6106e261108d565b600554806107285760405162461bcd60e51b81526020600482015260136024820152724e6f206665657320746f20776974686472617760681b60448201526064016104ce565b6000600581905580546040516001600160a01b039091169083908381818185875af1925050503d806000811461077a576040519150601f19603f3d011682016040523d82523d6000602084013e61077f565b606091505b50509050806107d05760405162461bcd60e51b815260206004820152601760248201527f4661696c656420746f207769746864726177206665657300000000000000000060448201526064016104ce565b50506107db60018055565b565b6107e5611060565b6107db60006110b7565b6107db611060565b6107ff61108d565b60008181526002602081905260409091209081015460ff166108585760405162461bcd60e51b81526020600482015260126024820152714c697374696e67206e6f742061637469766560701b60448201526064016104ce565b806001015434146108ab5760405162461bcd60e51b815260206004820152601860248201527f496e636f7272656374207061796d656e7420616d6f756e74000000000000000060448201526064016104ce565b80546040516331a9108f60e11b8152600481018490526001600160a01b03918216917f00000000000000000000000000000000000000000000000000000000000000001690636352211e90602401602060405180830381865afa158015610916573d6000803e3d6000fd5b505050506040513d601f19601f8201168201806040525081019061093a9190611211565b6001600160a01b0316146109905760405162461bcd60e51b815260206004820152601c60248201527f53656c6c6572206e6f206c6f6e676572206f776e73207469636b65740000000060448201526064016104ce565b60028101805460ff191690556001810154600090612710906109d3907f000000000000000000000000000000000000000000000000000000000000000090611244565b6109dd9190611261565b905060008183600101546109f19190611283565b90508160056000828254610a059190611296565b90915550508254604051632142170760e11b81526001600160a01b039182166004820152336024820152604481018690527f0000000000000000000000000000000000000000000000000000000000000000909116906342842e0e90606401600060405180830381600087803b158015610a7e57600080fd5b505af1158015610a92573d6000803e3d6000fd5b50508454604051600093506001600160a01b03909116915083908381818185875af1925050503d8060008114610ae4576040519150601f19603f3d011682016040523d82523d6000602084013e610ae9565b606091505b5050905080610b445760405162461bcd60e51b815260206004820152602160248201527f4661696c656420746f2073656e642070726f636565647320746f2073656c6c656044820152603960f91b60648201526084016104ce565b8354600185015460405190815233916001600160a01b03169087907f2bbc64d6afd28a753f6c5e4aaa894f1d684c44a0e080167eae104ac8505cfebd9060200160405180910390a450505050610b9960018055565b50565b60008111610bec5760405162461bcd60e51b815260206004820152601c60248201527f5072696365206d7573742062652067726561746572207468616e20300000000060448201526064016104ce565b6040516331a9108f60e11b81526004810183905233906001600160a01b037f00000000000000000000000000000000000000000000000000000000000000001690636352211e90602401602060405180830381865afa158015610c53573d6000803e3d6000fd5b505050506040513d601f19601f82011682018060405250810190610c779190611211565b6001600160a01b031614610cc05760405162461bcd60e51b815260206004820152601060248201526f2737ba103a34b1b5b2ba1037bbb732b960811b60448201526064016104ce565b604051639a2fd71360e01b8152600481018390526000907f00000000000000000000000000000000000000000000000000000000000000006001600160a01b031690639a2fd71390602401602060405180830381865afa158015610d28573d6000803e3d6000fd5b505050506040513d601f19601f82011682018060405250810190610d4c91906112a9565b60008181526004602052604081205491925003610d79576000818152600460205260409020829055610e15565b6000818152600360205260409020548015610e135760006064610d9c8382611296565b600085815260046020526040902054610db59190611244565b610dbf9190611261565b905080841115610e115760405162461bcd60e51b815260206004820152601860248201527f5072696365206578636565647320726573616c6520636170000000000000000060448201526064016104ce565b505b505b60405163020604bf60e21b81526004810184905230906001600160a01b037f0000000000000000000000000000000000000000000000000000000000000000169063081812fc90602401602060405180830381865afa158015610e7c573d6000803e3d6000fd5b505050506040513d601f19601f82011682018060405250810190610ea09190611211565b6001600160a01b03161480610f3e575060405163e985e9c560e01b81523360048201523060248201527f00000000000000000000000000000000000000000000000000000000000000006001600160a01b03169063e985e9c590604401602060405180830381865afa158015610f1a573d6000803e3d6000fd5b505050506040513d601f19601f82011682018060405250810190610f3e91906112c2565b610f8a5760405162461bcd60e51b815260206004820152601860248201527f4d61726b6574706c616365206e6f7420617070726f766564000000000000000060448201526064016104ce565b60408051606081018252338082526020808301868152600184860181815260008a8152600280865290889020965187546001600160a01b0319166001600160a01b03909116178755925191860191909155519301805460ff191693151593909317909255915184815285917f22968ec3be3687b180f3544163a034b88d57b48159d9a7e9a1b610fdb2d05f80910160405180910390a3505050565b61102d611060565b6001600160a01b03811661105757604051631e4fbdf760e01b8152600060048201526024016104ce565b610b99816110b7565b6000546001600160a01b031633146107db5760405163118cdaa760e01b81523360048201526024016104ce565b6002600154036110b057604051633ee5aeb560e01b815260040160405180910390fd5b6002600155565b600080546001600160a01b038381166001600160a01b0319831681178455604051919092169283917f8be0079c531659141344cd1fd0a4f28419497f9722a3daafe3b4186f6b6457e09190a35050565b6000806040838503121561111a57600080fd5b50508035926020909101359150565b60006020828403121561113b57600080fd5b5035919050565b6001600160a01b0381168114610b9957600080fd5b60006020828403121561116957600080fd5b813561117481611142565b9392505050565b8051801515811461118b57600080fd5b919050565b6000608082840312156111a257600080fd5b6040516080810181811067ffffffffffffffff821117156111d357634e487b7160e01b600052604160045260246000fd5b806040525082518152602083015160208201526111f26040840161117b565b6040820152606083015161120581611142565b60608201529392505050565b60006020828403121561122357600080fd5b815161117481611142565b634e487b7160e01b600052601160045260246000fd5b808202811582820484141761125b5761125b61122e565b92915050565b60008261127e57634e487b7160e01b600052601260045260246000fd5b500490565b8181038181111561125b5761125b61122e565b8082018082111561125b5761125b61122e565b6000602082840312156112bb57600080fd5b5051919050565b6000602082840312156112d457600080fd5b6111748261117b56fea26469706673582212204240249e245c4f472b0de7ba00cad1c0f12c3239d1418790740efaa81a9de33764736f6c63430008140033",
  "linkReferences": {},
  "deployedLinkReferences": {}
}