{
  "_format": "hh-sol-artifact-1",
  "contractName": "TicketNFT",
  "sourceName": "contracts/TicketNFT.sol",
  "abi": [
    {
      "inputs": [
        {
          "internalType": "address",
          "name": "_eventRegistry",
          "type": "address"
        }
      ],
      "stateMutability": "nonpayable",
      "type": "constructor"
    },
    {
      "inputs": [
        {
          "internalType": "address",
          "name": "sender",
          "type": "address"
        },
        {
          "internalType": "uint256",
          "name": "tokenId",
          "type": "uint256"
        },
        {
          "internalType": "address",
          "name": "owner",
          "type": "address"
        }
      ],
      "name": "ERC721IncorrectOwner",
      "type": "error"
    },
    {
      "inputs": [
        {
          "internalType": "address",
          "name": "operator",
          "type": "address"
        },
        {
          "internalType": "uint256",
          "name": "tokenId",
          "type": "uint256"
        }
      ],
      "name": "ERC721InsufficientApproval",
      "type": "error"
    },
    {
      "inputs": [
        {
          "internalType": "address",
          "name": "approver",
          "type": "address"
        }
      ],
      "name": "ERC721InvalidApprover",
      "type": "error"
    },
    {
      "inputs": [
        {
          "internalType": "address",
          "name": "operator",
          "type": "address"
        }
      ],
      "name": "ERC721InvalidOperator",
      "type": "error"
    },
    {
      "inputs": [
        {
          "internalType": "address",
          "name": "owner",
          "type": "address"
        }
      ],
      "name": "ERC721InvalidOwner",
      "type": "error"
    },
    {
      "inputs": [
        {
          "internalType": "address",
          "name": "receiver",
          "type": "address"
        }
      ],
      "name": "ERC721InvalidReceiver",
      "type": "error"
    },
    {
      "inputs": [
        {
          "internalType": "address",
          "name": "sender",
          "type": "address"
        }
      ],
      "name": "ERC721InvalidSender",
      "type": "error"
    },
    {
      "inputs": [
        {
          "internalType": "uint256",
          "name": "tokenId",
          "type": "uint256"
        }
      ],
      "name": "ERC721NonexistentToken",
      "type": "error"
    },
    {
      "inputs": [
        {
          "internalType": "address",
          "name": "owner",
          "type": "address"
        }
      ],
      "name": "OwnableInvalidOwner",
      "type": "error"
    },
    {
      "inputs": [
        {
          "internalType": "address",
          "name": "account",
          "type": "address"
        }
      ],
      "name": "OwnableUnauthorizedAccount",
      "type": "error"
    },
    {
      "anonymous": false,
      "inputs": [
        {
          "indexed": true,
          "internalType": "address",
          "name": "owner",
          "type": "address"
        },
        {
          "indexed": true,
          "internalType": "address",
          "name": "approved",
          "type": "address"
        },
        {
          "indexed": true,
          "internalType": "uint256",
          "name": "tokenId",
          "type": "uint256"
        }
      ],
      "name": "Approval",
      "type": "event"
    },
    {
      "anonymous": false,
      "inputs": [
        {
          "indexed": true,
          "internalType": "address",
          "name": "owner",
          "type": "address"
        },
        {
          "indexed": true,
          "internalType": "address",
          "name": "operator",
          "type": "address"
        },
        {
          "indexed": false,
          "internalType": "bool",
          "name": "approved",
          "type": "bool"
        }
      ],
      "name": "ApprovalForAll",
      "type": "event"
    },
    {
      "anonymous": false,
      "inputs": [
        {
          "indexed": true,
          "internalType": "address",
          "name": "previousOwner",
          "type": "address"
        },
        {
          "indexed": true,
          "internalType": "address",
          "name": "newOwner",
          "type": "address"
        }
      ],
      "name": "OwnershipTransferred",
      "type": "event"
    },
    {
      "anonymous": false,
      "inputs": [
        {
          "indexed": true,
          "internalType": "uint256",
          "name": "tokenId",
          "type": "uint256"
        }
      ],
      "name": "TicketBurned",
      "type": "event"
    },
    {
      "anonymous": false,
      "inputs": [
        {
          "indexed": true,
          "internalType": "address",
          "name": "to",
          "type": "address"
        },
        {
          "indexed": true,
          "internalType": "uint256",
          "name": "tokenId",
          "type": "uint256"
        },
        {
          "indexed": true,
          "internalType": "uint256",
          "name": "eventId",
          "type": "uint256"
        },
        {
          "indexed": false,
          "internalType": "uint256",
          "name": "seatId",
          "type": "uint256"
        }
      ],
      "name": "TicketMinted",
      "type": "event"
    },
    {
      "anonymous": false,
      "inputs": [
        {
          "indexed": true,
          "internalType": "address",
          "name": "from",
          "type": "address"
        },
        {
          "indexed": true,
          "internalType": "address",
          "name": "to",
          "type": "address"
        },
        {
          "indexed": true,
          "internalType": "uint256",
          "name": "tokenId",
          "type": "uint256"
        }
      ],
      "name": "Transfer",
      "type": "event"
    },
    {
      "inputs": [
        {
          "internalType": "address",
          "name": "to",
          "type": "address"
        },
        {
          "internalType": "uint256",
          "name": "tokenId",
          "type": "uint256"
        }
      ],
      "name": "approve",
      "outputs": [],
      "stateMutability": "nonpayable",
      "type": "function"
    },
    {
      "inputs": [
        {
          "internalType": "address",
          "name": "owner",
          "type": "address"
        }
      ],
      "name": "balanceOf",
      "outputs": [
        {
          "internalType": "uint256",
          "name": "",
          "type": "uint256"
        }
      ],
      "stateMutability": "view",
      "type": "function"
    },
    {
      "inputs": [
        {
          "internalType": "uint256",
          "name": "tokenId",
          "type": "uint256"
        }
      ],
      "name": "burn",
      "outputs": [],
      "stateMutability": "nonpayable",
      "type": "function"
    },
    {
      "inputs": [
        {
          "internalType": "uint256",
          "name": "tokenId",
          "type": "uint256"
        }
      ],
      "name": "eventOf",
      "outputs": [
        {
          "internalType": "uint256",
          "name": "eventId",
          "type": "uint256"
        }
      ],
      "stateMutability": "view",
      "type": "function"
    },
    {
      "inputs": [],
      "name": "eventRegistry",
      "outputs": [
        {
          "internalType": "contract IEventRegistry",
          "name": "",
          "type": "address"
        }
      ],
      "stateMutability": "view",
      "type": "function"
    },
    {
      "inputs": [
        {
          "internalType": "uint256",
          "name": "tokenId",
          "type": "uint256"
        }
      ],
      "name": "getApproved",
      "outputs": [
        {
          "internalType": "address",
          "name": "",
          "type": "address"
        }
      ],
      "stateMutability": "view",
      "type": "function"
    },
    {
      "inputs": [
        {
          "internalType": "address",
          "name": "owner",
          "type": "address"
        },
        {
          "internalType": "address",
          "name": "operator",
          "type": "address"
        }
      ],
      "name": "isApprovedForAll",
      "outputs": [
        {
          "internalType": "bool",
          "name": "",
          "type": "bool"
        }
      ],
      "stateMutability": "view",
      "type": "function"
    },
    {
      "inputs": [
        {
          "internalType": "address",
          "name": "to",
          "type": "address"
        },
        {
          "internalType": "uint256",
          "name": "eventId",
          "type": "uint256"
        },
        {
          "internalType": "uint256",
          "name": "seatId",
          "type": "uint256"
        }
      ],
      "name": "mintTicket",
      "outputs": [
        {
          "internalType": "uint256",
          "name": "tokenId",
          "type": "uint256"
        }
      ],
      "stateMutability": "nonpayable",
      "type": "function"
    },
    {
      "inputs": [],
      "name": "name",
      "outputs": [
        {
          "internalType": "string",
          "name": "",
          "type": "string"
        }
      ],
      "stateMutability": "view",
      "type": "function"
    },
    {
      "inputs": [],
      "name": "owner",
      "outputs": [
        {
          "internalType": "address",
          "name": "",
          "type": "address"
        }
      ],
      "stateMutability": "view",
      "type": "function"
    },
    {
      "inputs": [
        {
          "internalType": "uint256",
          "name": "tokenId",
          "type": "uint256"
        }
      ],
      "name": "ownerOf",
      "outputs": [
        {
          "internalType": "address",
          "name": "",
          "type": "address"
        }
      ],
      "stateMutability": "view",
      "type": "function"
    },
    {
      "inputs": [],
      "name": "renounceOwnership",
      "outputs": [],
      "stateMutability": "nonpayable",
      "type": "function"
    },
    {
      "inputs": [
        {
          "internalType": "address",
          "name": "from",
          "type": "address"
        },
        {
          "internalType": "address",
          "name": "to",
          "type": "address"
        },
        {
          "internalType": "uint256",
          "name": "tokenId",
          "type": "uint256"
        }
      ],
      "name": "safeTransferFrom",
      "outputs": [],
      "stateMutability": "nonpayable",
      "type": "function"
    },
    {
      "inputs": [
        {
          "internalType": "address",
          "name": "from",
          "type": "address"
        },
        {
          "internalType": "address",
          "name": "to",
          "type": "address"
        },
        {
          "internalType": "uint256",
          "name": "tokenId",
          "type": "uint256"
        },
        {
          "internalType": "bytes",
          "name": "data",
          "type": "bytes"
        }
      ],
      "name": "safeTransferFrom",
      "outputs": [],
      "stateMutability": "nonpayable",
      "type": "function"
    },
    {
      "inputs": [
        {
          "internalType": "uint256",
          "name": "tokenId",
          "type": "uint256"
        }
      ],
      "name": "seatOf",
      "outputs": [
        {
          "internalType": "uint256",
          "name": "seatId",
          "type": "uint256"
        }
      ],
      "stateMutability": "view",
      "type": "function"
    },
    {
      "inputs": [
        {
          "internalType": "address",
          "name": "operator",
          "type": "address"
        },
        {
          "internalType": "bool",
          "name": "approved",
          "type": "bool"
        }
      ],
      "name": "setApprovalForAll",
      "outputs": [],
      "stateMutability": "nonpayable",
      "type": "function"
    },
    {
      "inputs": [
        {
          "internalType": "bytes4",
          "name": "interfaceId",
          "type": "bytes4"
        }
      ],
      "name": "supportsInterface",
      "outputs": [
        {
          "internalType": "bool",
          "name": "",
          "type": "bool"
        }
      ],
      "stateMutability": "view",
      "type": "function"
    },
    {
      "inputs": [],
      "name": "symbol",
      "outputs": [
        {
          "internalType": "string",
          "name": "",
          "type": "string"
        }
      ],
      "stateMutability": "view",
      "type": "function"
    },
    {
      "inputs": [
        {
          "internalType": "uint256",
          "name": "tokenId",
          "type": "uint256"
        }
      ],
      "name": "tokenURI",
      "outputs": [
        {
          "internalType": "string",
          "name": "",
          "type": "string"
        }
      ],
      "stateMutability": "view",
      "type": "function"
    },
    {
      "inputs": [
        {
          "internalType": "address",
          "name": "from",
          "type": "address"
        },
        {
          "internalType": "address",
          "name": "to",
          "type": "address"
        },
        {
          "internalType": "uint256",
          "name": "tokenId",
          "type": "uint256"
        }
      ],
      "name": "transferFrom",
      "outputs": [],
      "stateMutability": "nonpayable",
      "type": "function"
    },
    {
      "inputs": [
        {
          "internalType": "address",
          "name": "newOwner",
          "type": "address"
        }
      ],
      "name": "transferOwnership",
      "outputs": [],
      "stateMutability": "nonpayable",
      "type": "function"
    }
  ],
  "bytecode": "0x60a06040523480156200001157600080fd5b5060405162001aa238038062001aa283398101604081905262000034916200018f565b3360405180604001604052806009815260200168151a58dad95d13919560ba1b815250604051806040016040528060048152602001635449434b60e01b815250816000908162000085919062000266565b50600162000094828262000266565b5050506001600160a01b038116620000c757604051631e4fbdf760e01b8152600060048201526024015b60405180910390fd5b620000d2816200013d565b506001600160a01b0381166200012b5760405162461bcd60e51b815260206004820152601860248201527f496e76616c6964207265676973747279206164647265737300000000000000006044820152606401620000be565b6001600160a01b031660805262000332565b600680546001600160a01b038381166001600160a01b0319831681179093556040519116919082907f8be0079c531659141344cd1fd0a4f28419497f9722a3daafe3b4186f6b6457e090600090a35050565b600060208284031215620001a257600080fd5b81516001600160a01b0381168114620001ba57600080fd5b9392505050565b634e487b7160e01b600052604160045260246000fd5b600181811c90821680620001ec57607f821691505b6020821081036200020d57634e487b7160e01b600052602260045260246000fd5b50919050565b601f8211156200026157600081815260208120601f850160051c810160208610156200023c5750805b601f850160051c820191505b818110156200025d5782815560010162000248565b5050505b505050565b81516001600160401b03811115620002825762000282620001c1565b6200029a81620002938454620001d7565b8462000213565b602080601f831160018114620002d25760008415620002b95750858301515b600019600386901b1c1916600185901b1785556200025d565b600085815260208120601f198616915b828110156200030357888601518255948401946001909101908401620002e2565b5085821015620003225787850151600019600388901b60f8161c191681555b5050505050600190811b01905550565b6080516117466200035c6000396000818161027201528181610771015261084001526117466000f3fe608060405234801561001057600080fd5b50600436106101375760003560e01c80638da5cb5b116100b8578063b88d4fde1161007c578063b88d4fde14610294578063c87b56dd146102a7578063e6d37b31146102ba578063e870cb66146102cd578063e985e9c5146102e0578063f2fde38b146102f357600080fd5b80638da5cb5b1461022e57806395d89b411461023f5780639a2fd71314610247578063a22cb4651461025a578063acaacad51461026d57600080fd5b806342842e0e116100ff57806342842e0e146101cc57806342966c68146101df5780636352211e146101f257806370a0823114610205578063715018a61461022657600080fd5b806301ffc9a71461013c57806306fdde0314610164578063081812fc14610179578063095ea7b3146101a457806323b872dd146101b9575b600080fd5b61014f61014a3660046112a7565b610306565b60405190151581526020015b60405180910390f35b61016c610331565b60405161015b9190611314565b61018c610187366004611327565b6103c3565b6040516001600160a01b03909116815260200161015b565b6101b76101b2366004611355565b6103ec565b005b6101b76101c7366004611381565b6103fb565b6101b76101da366004611381565b61048b565b6101b76101ed366004611327565b6104ab565b61018c610200366004611327565b61056f565b6102186102133660046113c2565b61057a565b60405190815260200161015b565b6101b76105c2565b6006546001600160a01b031661018c565b61016c6105d6565b610218610255366004611327565b6105e5565b6101b76102683660046113ed565b610653565b61018c7f000000000000000000000000000000000000000000000000000000000000000081565b6101b76102a236600461146d565b61065e565b61016c6102b5366004611327565b610676565b6102186102c8366004611327565b6106eb565b6102186102db366004611531565b610759565b61014f6102ee366004611566565b610a40565b6101b76103013660046113c2565b610a6e565b60006001600160e01b031982166330c9701d60e01b148061032b575061032b82610aac565b92915050565b60606000805461034090611594565b80601f016020809104026020016040519081016040528092919081815260200182805461036c90611594565b80156103b95780601f1061038e576101008083540402835291602001916103b9565b820191906000526020600020905b81548152906001019060200180831161039c57829003601f168201915b5050505050905090565b60006103ce82610afc565b506000828152600460205260409020546001600160a01b031661032b565b6103f7828233610b35565b5050565b6001600160a01b03821661042a57604051633250574960e11b8152600060048201526024015b60405180910390fd5b6000610437838333610b42565b9050836001600160a01b0316816001600160a01b031614610485576040516364283d7b60e01b81526001600160a01b0380861660048301526024820184905282166044820152606401610421565b50505050565b6104a68383836040518060200160405280600081525061065e565b505050565b6104b733600083610c3b565b6104fb5760405162461bcd60e51b8152602060048201526015602482015274139bdd081bdddb995c881bdc88185c1c1c9bdd9959605a1b6044820152606401610421565b6000818152600860209081526040808320805460098452828520805492869055859055808552600a8452828520828652909352908320929092559061053f83610ca1565b60405183907fd6acdc6c4f4076335309cf5eeb3b91b03b26861765e0726fce70f4617de8c7c690600090a2505050565b600061032b82610afc565b60006001600160a01b0382166105a6576040516322718ad960e21b815260006004820152602401610421565b506001600160a01b031660009081526003602052604090205490565b6105ca610cdc565b6105d46000610d09565b565b60606001805461034090611594565b6000818152600260205260408120546001600160a01b03166106405760405162461bcd60e51b8152602060048201526014602482015273151bdad95b88191bd95cc81b9bdd08195e1a5cdd60621b6044820152606401610421565b5060009081526008602052604090205490565b6103f7338383610d5b565b6106698484846103fb565b6104853385858585610dfa565b606061068182610afc565b50600061069960408051602081019091526000815290565b905060008151116106b957604051806020016040528060008152506106e4565b806106c384610f25565b6040516020016106d49291906115ce565b6040516020818303038152906040525b9392505050565b6000818152600260205260408120546001600160a01b03166107465760405162461bcd60e51b8152602060048201526014602482015273151bdad95b88191bd95cc81b9bdd08195e1a5cdd60621b6044820152606401610421565b5060009081526009602052604090205490565b6040516355138f0d60e11b81523360048201526000907f00000000000000000000000000000000000000000000000000000000000000006001600160a01b03169063aa271e1a90602401602060405180830381865afa1580156107c0573d6000803e3d6000fd5b505050506040513d601f19601f820116820180604052508101906107e491906115fd565b6108285760405162461bcd60e51b81526020600482015260156024820152742737ba1030baba3437b934bd32b21036b4b73a32b960591b6044820152606401610421565b60405162b7914360e41b8152600481018490526000907f00000000000000000000000000000000000000000000000000000000000000006001600160a01b031690630b79143090602401608060405180830381865afa15801561088f573d6000803e3d6000fd5b505050506040513d601f19601f820116820180604052508101906108b3919061161a565b80519091506108fb5760405162461bcd60e51b8152602060048201526014602482015273115d995b9d08191bd95cc81b9bdd08195e1a5cdd60621b6044820152606401610421565b80604001511561093f5760405162461bcd60e51b815260206004820152600f60248201526e115d995b9d081a5cc81c185d5cd959608a1b6044820152606401610421565b6000848152600a602090815260408083208684529091529020541561099c5760405162461bcd60e51b815260206004820152601360248201527214d9585d08185b1c9958591e481b5a5b9d1959606a1b6044820152606401610421565b600780549060006109ac8361168f565b9091555050600754600081815260086020908152604080832088905560098252808320879055878352600a8252808320878452909152902081905591506109f38583610fb8565b8382866001600160a01b03167f64bd16642eed00863590d7320e06c0f31bb0468a971feede4e13313e3b27922486604051610a3091815260200190565b60405180910390a4509392505050565b6001600160a01b03918216600090815260056020908152604080832093909416825291909152205460ff1690565b610a76610cdc565b6001600160a01b038116610aa057604051631e4fbdf760e01b815260006004820152602401610421565b610aa981610d09565b50565b60006001600160e01b031982166380ac58cd60e01b1480610add57506001600160e01b03198216635b5e139f60e01b145b8061032b57506301ffc9a760e01b6001600160e01b031983161461032b565b6000818152600260205260408120546001600160a01b03168061032b57604051637e27328960e01b815260048101849052602401610421565b6104a68383836001610fd2565b6000828152600260205260408120546001600160a01b0390811690831615610b6f57610b6f8184866110d8565b6001600160a01b03811615610bad57610b8c600085600080610fd2565b6001600160a01b038116600090815260036020526040902080546000190190555b6001600160a01b03851615610bdc576001600160a01b0385166000908152600360205260409020805460010190555b60008481526002602052604080822080546001600160a01b0319166001600160a01b0389811691821790925591518793918516917fddf252ad1be2c89b69c2b068fc378daa952ba7f163c4a11628f55a4df523b3ef91a4949350505050565b60006001600160a01b03831615801590610c995750826001600160a01b0316846001600160a01b03161480610c755750610c758484610a40565b80610c9957506000828152600460205260409020546001600160a01b038481169116145b949350505050565b6000610cb06000836000610b42565b90506001600160a01b0381166103f757604051637e27328960e01b815260048101839052602401610421565b6006546001600160a01b031633146105d45760405163118cdaa760e01b8152336004820152602401610421565b600680546001600160a01b038381166001600160a01b0319831681179093556040519116919082907f8be0079c531659141344cd1fd0a4f28419497f9722a3daafe3b4186f6b6457e090600090a35050565b6001600160a01b038216610d8d57604051630b61174360e31b81526001600160a01b0383166004820152602401610421565b6001600160a01b03838116600081815260056020908152604080832094871680845294825291829020805460ff191686151590811790915591519182527f17307eab39ab6107e8899845ad3d59bd9653f200f220920489ca2b5937696c31910160405180910390a3505050565b6001600160a01b0383163b15610f1e57604051630a85bd0160e11b81526001600160a01b0384169063150b7a0290610e3c9088908890879087906004016116b6565b6020604051808303816000875af1925050508015610e77575060408051601f3d908101601f19168201909252610e74918101906116f3565b60015b610ee0573d808015610ea5576040519150601f19603f3d011682016040523d82523d6000602084013e610eaa565b606091505b508051600003610ed857604051633250574960e11b81526001600160a01b0385166004820152602401610421565b805181602001fd5b6001600160e01b03198116630a85bd0160e11b14610f1c57604051633250574960e11b81526001600160a01b0385166004820152602401610421565b505b5050505050565b60606000610f328361113c565b600101905060008167ffffffffffffffff811115610f5257610f52611426565b6040519080825280601f01601f191660200182016040528015610f7c576020820181803683370190505b5090508181016020015b600019016f181899199a1a9b1b9c1cb0b131b232b360811b600a86061a8153600a8504945084610f8657509392505050565b6103f7828260405180602001604052806000815250611214565b8080610fe657506001600160a01b03821615155b156110a8576000610ff684610afc565b90506001600160a01b038316158015906110225750826001600160a01b0316816001600160a01b031614155b801561103557506110338184610a40565b155b1561105e5760405163a9fbf51f60e01b81526001600160a01b0384166004820152602401610421565b81156110a65783856001600160a01b0316826001600160a01b03167f8c5be1e5ebec7d5bd14f71427d1e84f3dd0314c0f7b2291e5b200ac8c7c3b92560405160405180910390a45b505b5050600090815260046020526040902080546001600160a01b0319166001600160a01b0392909216919091179055565b6110e3838383610c3b565b6104a6576001600160a01b03831661111157604051637e27328960e01b815260048101829052602401610421565b60405163177e802f60e01b81526001600160a01b038316600482015260248101829052604401610421565b60008072184f03e93ff9f4daa797ed6e38ed64bf6a1f0160401b831061117b5772184f03e93ff9f4daa797ed6e38ed64bf6a1f0160401b830492506040015b6d04ee2d6d415b85acef810000000083106111a7576d04ee2d6d415b85acef8100000000830492506020015b662386f26fc1000083106111c557662386f26fc10000830492506010015b6305f5e10083106111dd576305f5e100830492506008015b61271083106111f157612710830492506004015b60648310611203576064830492506002015b600a831061032b5760010192915050565b61121e838361122c565b6104a6336000858585610dfa565b6001600160a01b03821661125657604051633250574960e11b815260006004820152602401610421565b600061126483836000610b42565b90506001600160a01b038116156104a6576040516339e3563760e11b815260006004820152602401610421565b6001600160e01b031981168114610aa957600080fd5b6000602082840312156112b957600080fd5b81356106e481611291565b60005b838110156112df5781810151838201526020016112c7565b50506000910152565b600081518084526113008160208601602086016112c4565b601f01601f19169290920160200192915050565b6020815260006106e460208301846112e8565b60006020828403121561133957600080fd5b5035919050565b6001600160a01b0381168114610aa957600080fd5b6000806040838503121561136857600080fd5b823561137381611340565b946020939093013593505050565b60008060006060848603121561139657600080fd5b83356113a181611340565b925060208401356113b181611340565b929592945050506040919091013590565b6000602082840312156113d457600080fd5b81356106e481611340565b8015158114610aa957600080fd5b6000806040838503121561140057600080fd5b823561140b81611340565b9150602083013561141b816113df565b809150509250929050565b634e487b7160e01b600052604160045260246000fd5b604051601f8201601f1916810167ffffffffffffffff8111828210171561146557611465611426565b604052919050565b6000806000806080858703121561148357600080fd5b843561148e81611340565b935060208581013561149f81611340565b935060408601359250606086013567ffffffffffffffff808211156114c357600080fd5b818801915088601f8301126114d757600080fd5b8135818111156114e9576114e9611426565b6114fb601f8201601f1916850161143c565b9150808252898482850101111561151157600080fd5b808484018584013760008482840101525080935050505092959194509250565b60008060006060848603121561154657600080fd5b833561155181611340565b95602085013595506040909401359392505050565b6000806040838503121561157957600080fd5b823561158481611340565b9150602083013561141b81611340565b600181811c908216806115a857607f821691505b6020821081036115c857634e487b7160e01b600052602260045260246000fd5b50919050565b600083516115e08184602088016112c4565b8351908301906115f48183602088016112c4565b01949350505050565b60006020828403121561160f57600080fd5b81516106e4816113df565b60006080828403121561162c57600080fd5b6040516080810181811067ffffffffffffffff8211171561164f5761164f611426565b806040525082518152602083015160208201526040830151611670816113df565b6040820152606083015161168381611340565b60608201529392505050565b6000600182016116af57634e487b7160e01b600052601160045260246000fd5b5060010190565b6001600160a01b03858116825284166020820152604081018390526080606082018190526000906116e9908301846112e8565b9695505050505050565b60006020828403121561170557600080fd5b81516106e48161129156fea2646970667358221220bff2dc477620a2f0d64c3153d662180168436c9e93ced709961b52eeabc59fba64736f6c63430008140033",
  "linkReferences": {},
  "deployedLinkReferences": {}
}